{
  "contractName": "Slots",
  "abi": [
    {
      "inputs": [],
      "payable": true,
      "stateMutability": "payable",
      "type": "constructor"
    },
    {
      "anonymous": false,
      "inputs": [
        {
          "indexed": false,
          "internalType": "bool",
          "name": "win",
          "type": "bool"
        },
        {
          "indexed": false,
          "internalType": "uint256",
          "name": "WinAmount",
          "type": "uint256"
        }
      ],
      "name": "Won",
      "type": "event"
    },
    {
      "constant": false,
      "inputs": [],
      "name": "StartGame",
      "outputs": [],
      "payable": true,
      "stateMutability": "payable",
      "type": "function"
    },
    {
      "constant": true,
      "inputs": [],
      "name": "Random",
      "outputs": [
        {
          "internalType": "uint256",
          "name": "",
          "type": "uint256"
        }
      ],
      "payable": false,
      "stateMutability": "view",
      "type": "function"
    },
    {
      "constant": true,
      "inputs": [],
      "name": "ContractBalance",
      "outputs": [
        {
          "internalType": "uint256",
          "name": "",
          "type": "uint256"
        }
      ],
      "payable": false,
      "stateMutability": "view",
      "type": "function"
    },
    {
      "constant": true,
      "inputs": [],
      "name": "getNumbers",
      "outputs": [
        {
          "internalType": "uint256[]",
          "name": "",
          "type": "uint256[]"
        }
      ],
      "payable": false,
      "stateMutability": "view",
      "type": "function"
    }
  ],
  "bytecode": "0x608060405261083b806100136000396000f3fe60806040526004361061003f5760003560e01c80633b66805914610044578063604a6fa91461006f57806389f915f61461009a578063a3dfc36414610106575b600080fd5b34801561005057600080fd5b50610059610110565b6040518082815260200191505060405180910390f35b34801561007b57600080fd5b50610084610118565b6040518082815260200191505060405180910390f35b3480156100a657600080fd5b506100af610153565b6040518080602001828103825283818151815260200191508051906020019060200280838360005b838110156100f25780820151818401526020810190506100d7565b505050509050019250505060405180910390f35b61010e6101e7565b005b600047905090565b6000601742604051602001808281526020019150506040516020818303038152906040528051906020012060001c8161014d57fe5b06905090565b60606000803373ffffffffffffffffffffffffffffffffffffffff1673ffffffffffffffffffffffffffffffffffffffff1681526020019081526020016000208054806020026020016040519081016040528092919081815260200182805480156101dd57602002820191906000526020600020905b8154815260200190600101908083116101c9575b5050505050905090565b6000341161025d576040517f08c379a000000000000000000000000000000000000000000000000000000000815260040180806020018281038252600e8152602001807f42616c616e636520746f206c6f7700000000000000000000000000000000000081525060200191505060405180910390fd5b600034905060016000610270919061076e565b6000819050600061027f610118565b9050600181908060018154018082558091505090600182039060005260206000200160009091929091909150555060006102b7610118565b9050600181908060018154018082558091505090600182039060005260206000200160009091929091909150555060006102ef610118565b9050600181908060018154018082558091505090600182039060005260206000200160009091929091909150555060016000803373ffffffffffffffffffffffffffffffffffffffff1673ffffffffffffffffffffffffffffffffffffffff16815260200190815260200160002090805461036b92919061078f565b50600f8311801561037d575060138311155b801561038a575060128211155b8015610397575060128111155b156103a8576103a78460016106b7565b5b600f83111580156103c657506012821180156103c5575060158211155b5b80156103d3575060128111155b156103e4576103e38460016106b7565b5b600f83111580156103f6575060128211155b801561040f575060128111801561040e575060158111155b5b156104205761041f8460016106b7565b5b600f83118015610431575060138311155b801561044a5750601282118015610449575060158211155b5b8015610457575060128111155b15610468576104678460046106b7565b5b600f83111580156104865750601282118015610485575060158211155b5b801561049f575060128111801561049e575060158111155b5b156104b0576104af8460046106b7565b5b600f831180156104c1575060138311155b80156104ce575060128211155b80156104e757506012811180156104e6575060158111155b5b156104f8576104f78460046106b7565b5b600f831115801561050a575060128211155b8015610517575060128111155b156105f5576005831115801561052e575060068211155b801561053b575060068111155b1561054c5761054b84600a6106b7565b5b60058311801561055d5750600a8311155b801561057657506006821180156105755750600c8211155b5b801561058f575060068111801561058e5750600c8111155b5b156105a05761059f84600a6106b7565b5b600a831180156105b15750600f8311155b80156105ca5750600c821180156105c9575060128211155b5b80156105e35750600c811180156105e2575060128111155b5b156105f4576105f384600a6106b7565b5b5b600f83118015610606575060138311155b801561061f575060128211801561061e575060158211155b5b80156106385750601281118015610637575060158111155b5b15610649576106488460146106b7565b5b60138311801561065a575060168311155b80156106665750601682145b80156106725750601681145b15610683576106828460286106b7565b5b6017831480156106935750601782145b801561069f5750601781145b156106b0576106af84603c6106b7565b5b5050505050565b60008183029050600060019050816106cd610110565b10156106de576106db610110565b91505b3373ffffffffffffffffffffffffffffffffffffffff166108fc839081150290604051600060405180830381858888f19350505050158015610724573d6000803e3d6000fd5b507f2fda3525453650e1c58417dd4764ce9fc5c5f0f77f345a43758186d3d01909d1818360405180831515151581526020018281526020019250505060405180910390a150505050565b508054600082559060005260206000209081019061078c91906107e1565b50565b8280548282559060005260206000209081019282156107d05760005260206000209182015b828111156107cf5782548255916001019190600101906107b4565b5b5090506107dd91906107e1565b5090565b61080391905b808211156107ff5760008160009055506001016107e7565b5090565b9056fea265627a7a72315820eae4fc1f73fa4e3b106d164c8a30637236d8d425f1d75667e1acc0c0d23ae22a64736f6c63430005100032",
  "source": "pragma solidity ^0.5.11;\r\n\r\ncontract Slots {\r\n    \r\n    mapping(address => uint[])  playerList;\r\n    uint[] Numbers;\r\n\r\n\r\n    // Setup an intial amount for the bank, supplied during the creation of the contract.    \r\n    constructor() public payable {\r\n    }\r\n\r\n    event Won(bool win, uint256 WinAmount);  \r\n    \r\n    function StartGame() public payable {\r\n        require(msg.value > 0, \"Balance to low\");\r\n        uint256 amount = msg.value;\r\n        delete Numbers;\r\n        uint256 playerBalance = amount;\r\n        //NOT random until oracalized for now they produce 3 times the same random number\r\n        uint Slotwheel1 = Random();\r\n        Numbers.push(Slotwheel1);\r\n        uint Slotwheel2 = Random();\r\n        Numbers.push(Slotwheel2);\r\n        uint Slotwheel3 = Random();\r\n        Numbers.push(Slotwheel3);\r\n        \r\n        playerList[msg.sender] = Numbers;\r\n        \r\n        //Cherry in slot one and two fruits\r\n        if((Slotwheel1 > 15 && Slotwheel1 <= 19) && (Slotwheel2 <= 18) && (Slotwheel3 <= 18)){\r\n            CalculateWinnings(playerBalance, 1);\r\n        }\r\n        //Cherry in slot two and two fruits\r\n        if((Slotwheel1 <= 15) && (Slotwheel2 > 18 && Slotwheel2 <= 21) && (Slotwheel3 <= 18)){\r\n            CalculateWinnings(playerBalance, 1);\r\n        }\r\n        //Cherry in slot three and two fruits\r\n        if((Slotwheel1 <= 15) && (Slotwheel2 <= 18) && (Slotwheel3 > 18 && Slotwheel3 <= 21)){\r\n            CalculateWinnings(playerBalance, 1);\r\n        }\r\n        \r\n        //Cherries in slot one/two and one fruit\r\n        if((Slotwheel1 > 15 && Slotwheel1 <= 19) && (Slotwheel2 > 18 && Slotwheel2 <= 21) && (Slotwheel3 <= 18)){\r\n            CalculateWinnings(playerBalance, 4);\r\n        }\r\n        //Cherries in slot two/three and one fruit\r\n        if((Slotwheel1 <= 15) && (Slotwheel2 > 18 && Slotwheel2 <= 21) && (Slotwheel3 > 18 && Slotwheel3 <= 21)){\r\n            CalculateWinnings(playerBalance, 4);\r\n        }\r\n        //Cherries in slot one/three and one fruit\r\n        if((Slotwheel1 > 15 && Slotwheel1 <= 19) && (Slotwheel2 <= 18) && (Slotwheel3 > 18 && Slotwheel3 <= 21)){\r\n            CalculateWinnings(playerBalance, 4);\r\n        }\r\n        \r\n        //Random fruit combination (Lemon, Banana, Orange)\r\n        if(Slotwheel1 <= 15 && Slotwheel2 <= 18 && Slotwheel3 <= 18){\r\n            //All lemons\r\n            if(Slotwheel1 <= 5 && Slotwheel2 <= 6 && Slotwheel3 <= 6){\r\n                CalculateWinnings(playerBalance, 10);\r\n            }\r\n            //All Banana\r\n            if((Slotwheel1 > 5 && Slotwheel1 <= 10)&&(Slotwheel2 > 6 && Slotwheel2 <= 12)&&(Slotwheel3 > 6 && Slotwheel3 <= 12)){\r\n                CalculateWinnings(playerBalance, 10);\r\n            }\r\n            //ALl Orange\r\n            if((Slotwheel1 > 10 && Slotwheel1 <= 15)&&(Slotwheel2 > 12 && Slotwheel2 <= 18)&&(Slotwheel3 > 12 && Slotwheel3 <= 18)){\r\n                CalculateWinnings(playerBalance, 10);\r\n            }\r\n        }\r\n        \r\n        //All cherries\r\n        if((Slotwheel1 > 15 && Slotwheel1 <= 19) && (Slotwheel2 > 18 && Slotwheel2 <= 21) && (Slotwheel3 > 18 && Slotwheel3 <= 21)){\r\n            CalculateWinnings(playerBalance, 20);\r\n        }\r\n        //All Sevens\r\n        if((Slotwheel1 > 19 && Slotwheel1 <= 22) && (Slotwheel2 == 22) && (Slotwheel3 == 22)){\r\n            CalculateWinnings(playerBalance, 40);\r\n        }\r\n        //All BARs\r\n        if((Slotwheel1 == 23) && (Slotwheel2 == 23) && (Slotwheel3 == 23)){\r\n            CalculateWinnings(playerBalance, 60);\r\n        }\r\n    }\r\n    \r\n    function Random() public view returns (uint) {\r\n        return uint(keccak256(abi.encodePacked(block.timestamp)))%23;\r\n    }\r\n    \r\n    function ContractBalance() public view returns (uint){\r\n        return address(this).balance;\r\n    }\r\n    \r\n    function CalculateWinnings(uint Pbalance, uint Multiplier) private {\r\n        uint256 WinBalance = Pbalance * Multiplier;\r\n        bool win = true;\r\n        if(ContractBalance() < WinBalance){\r\n            WinBalance = ContractBalance();\r\n            }\r\n        msg.sender.transfer(WinBalance);\r\n        emit Won(win, WinBalance);\r\n        }\r\n        \r\n    function getNumbers() public view returns(uint[] memory) {\r\n        return playerList[msg.sender];\r\n    }\r\n}",
  "sourcePath": "C:/Users/Lord R/Documents/GitHub/BC3_Jakob/PD-07/truffle/contracts/Slots.sol",
  "compiler": {
    "name": "solc",
    "version": "0.5.16+commit.9c3226ce.Emscripten.clang"
  },
  "schemaVersion": "3.3.2",
  "updatedAt": "2020-12-07T12:39:46.281Z",
  "networkType": "ethereum",
  "devdoc": {
    "methods": {}
  },
  "userdoc": {
    "methods": {}
  }
}