{
  "contractName": "Slots",
  "abi": [
    {
      "anonymous": false,
      "inputs": [
        {
          "indexed": false,
          "internalType": "bool",
          "name": "win",
          "type": "bool"
        },
        {
          "indexed": false,
          "internalType": "uint256",
          "name": "WinAmount",
          "type": "uint256"
        }
      ],
      "name": "Won",
      "type": "event"
    },
    {
      "inputs": [
        {
          "internalType": "uint256",
          "name": "",
          "type": "uint256"
        }
      ],
      "name": "Numbers",
      "outputs": [
        {
          "internalType": "uint256",
          "name": "",
          "type": "uint256"
        }
      ],
      "stateMutability": "view",
      "type": "function",
      "constant": true
    },
    {
      "inputs": [],
      "name": "OracleAdress",
      "outputs": [
        {
          "internalType": "address",
          "name": "",
          "type": "address"
        }
      ],
      "stateMutability": "view",
      "type": "function",
      "constant": true
    },
    {
      "inputs": [],
      "name": "initialize",
      "outputs": [],
      "stateMutability": "payable",
      "type": "function",
      "payable": true
    },
    {
      "inputs": [
        {
          "internalType": "address",
          "name": "_addy",
          "type": "address"
        }
      ],
      "name": "set_addressOracle",
      "outputs": [],
      "stateMutability": "nonpayable",
      "type": "function"
    },
    {
      "inputs": [],
      "name": "CallOracle",
      "outputs": [
        {
          "internalType": "bytes32",
          "name": "",
          "type": "bytes32"
        }
      ],
      "stateMutability": "nonpayable",
      "type": "function"
    },
    {
      "inputs": [],
      "name": "ReturnOracleNumber",
      "outputs": [
        {
          "internalType": "uint256",
          "name": "",
          "type": "uint256"
        }
      ],
      "stateMutability": "nonpayable",
      "type": "function"
    },
    {
      "inputs": [],
      "name": "StartGame",
      "outputs": [],
      "stateMutability": "payable",
      "type": "function",
      "payable": true
    },
    {
      "inputs": [],
      "name": "ContractBalance",
      "outputs": [
        {
          "internalType": "uint256",
          "name": "",
          "type": "uint256"
        }
      ],
      "stateMutability": "view",
      "type": "function",
      "constant": true
    },
    {
      "inputs": [],
      "name": "alterNumbers",
      "outputs": [],
      "stateMutability": "nonpayable",
      "type": "function"
    },
    {
      "inputs": [],
      "name": "getNumbers",
      "outputs": [
        {
          "internalType": "uint256[]",
          "name": "",
          "type": "uint256[]"
        }
      ],
      "stateMutability": "view",
      "type": "function",
      "constant": true
    }
  ],
  "bytecode": "0x608060405234801561001057600080fd5b50610d77806100206000396000f3fe6080604052600436106100915760003560e01c8063a3dfc36411610059578063a3dfc364146101b3578063cc040498146101bd578063dfa85eb0146101d4578063ecd651a114610215578063fe99d72b1461024057610091565b8063031a65ca146100965780631d8a7579146100e75780633b668059146101125780638129fc1c1461013d57806389f915f614610147575b600080fd5b3480156100a257600080fd5b506100e5600480360360208110156100b957600080fd5b81019080803573ffffffffffffffffffffffffffffffffffffffff16906020019092919050505061028f565b005b3480156100f357600080fd5b506100fc6102d3565b6040518082815260200191505060405180910390f35b34801561011e57600080fd5b50610127610384565b6040518082815260200191505060405180910390f35b61014561038c565b005b34801561015357600080fd5b5061015c6104df565b6040518080602001828103825283818151815260200191508051906020019060200280838360005b8381101561019f578082015181840152602081019050610184565b505050509050019250505060405180910390f35b6101bb610574565b005b3480156101c957600080fd5b506101d2610985565b005b3480156101e057600080fd5b506101e96109fe565b604051808273ffffffffffffffffffffffffffffffffffffffff16815260200191505060405180910390f35b34801561022157600080fd5b5061022a610a24565b6040518082815260200191505060405180910390f35b34801561024c57600080fd5b506102796004803603602081101561026357600080fd5b8101908080359060200190929190505050610ad5565b6040518082815260200191505060405180910390f35b80603360006101000a81548173ffffffffffffffffffffffffffffffffffffffff021916908373ffffffffffffffffffffffffffffffffffffffff16021790555050565b600080603360009054906101000a900473ffffffffffffffffffffffffffffffffffffffff1690508073ffffffffffffffffffffffffffffffffffffffff16633450bd6a6040518163ffffffff1660e01b8152600401602060405180830381600087803b15801561034357600080fd5b505af1158015610357573d6000803e3d6000fd5b505050506040513d602081101561036d57600080fd5b810190808051906020019092919050505091505090565b600047905090565b600060019054906101000a900460ff16806103ab57506103aa610aed565b5b806103c1575060008054906101000a900460ff16155b610416576040517f08c379a000000000000000000000000000000000000000000000000000000000815260040180806020018281038252602e815260200180610d14602e913960400191505060405180910390fd5b60008060019054906101000a900460ff161590508015610466576001600060016101000a81548160ff02191690831515021790555060016000806101000a81548160ff0219169083151502179055505b73259ff8f10e98dc30afef489095f88e0b9a9028ac603460006101000a81548173ffffffffffffffffffffffffffffffffffffffff021916908373ffffffffffffffffffffffffffffffffffffffff16021790555080156104dc5760008060016101000a81548160ff0219169083151502179055505b50565b6060603560003373ffffffffffffffffffffffffffffffffffffffff1673ffffffffffffffffffffffffffffffffffffffff16815260200190815260200160002080548060200260200160405190810160405280929190818152602001828054801561056a57602002820191906000526020600020905b815481526020019060010190808311610556575b5050505050905090565b670de0b6b3a7640000803410156105f3576040517f08c379a00000000000000000000000000000000000000000000000000000000081526004018080602001828103825260188152602001807f5472616e73616374696f6e2076616c756520746f206c6f77000000000000000081525060200191505060405180910390fd5b600034905060008190506000603660006003811061060d57fe5b015490506000603660016003811061062157fe5b015490506000603660026003811061063557fe5b01549050600f8311801561064a575060138311155b8015610657575060128211155b8015610664575060128111155b1561067557610674846001610b04565b5b600f83111580156106935750601282118015610692575060158211155b5b80156106a0575060128111155b156106b1576106b0846001610b04565b5b600f83111580156106c3575060128211155b80156106dc57506012811180156106db575060158111155b5b156106ed576106ec846001610b04565b5b600f831180156106fe575060138311155b80156107175750601282118015610716575060158211155b5b8015610724575060128111155b1561073557610734846004610b04565b5b600f83111580156107535750601282118015610752575060158211155b5b801561076c575060128111801561076b575060158111155b5b1561077d5761077c846004610b04565b5b600f8311801561078e575060138311155b801561079b575060128211155b80156107b457506012811180156107b3575060158111155b5b156107c5576107c4846004610b04565b5b600f83111580156107d7575060128211155b80156107e4575060128111155b156108c257600583111580156107fb575060068211155b8015610808575060068111155b156108195761081884600a610b04565b5b60058311801561082a5750600a8311155b801561084357506006821180156108425750600c8211155b5b801561085c575060068111801561085b5750600c8111155b5b1561086d5761086c84600a610b04565b5b600a8311801561087e5750600f8311155b80156108975750600c82118015610896575060128211155b5b80156108b05750600c811180156108af575060128111155b5b156108c1576108c084600a610b04565b5b5b600f831180156108d3575060138311155b80156108ec57506012821180156108eb575060158211155b5b80156109055750601281118015610904575060158111155b5b1561091657610915846014610b04565b5b601383118015610927575060168311155b80156109335750601682145b801561093f5750601681145b156109505761094f846028610b04565b5b6017831480156109605750601782145b801561096c5750601781145b1561097d5761097c84603c610b04565b5b505050505050565b600061098f6102d3565b905061099a81610bb9565b60369060036109aa929190610c4a565b506036603560003373ffffffffffffffffffffffffffffffffffffffff1673ffffffffffffffffffffffffffffffffffffffff1681526020019081526020016000209060036109fa929190610c8a565b5050565b603360009054906101000a900473ffffffffffffffffffffffffffffffffffffffff1681565b600080603360009054906101000a900473ffffffffffffffffffffffffffffffffffffffff1690508073ffffffffffffffffffffffffffffffffffffffff1663dbdff2c16040518163ffffffff1660e01b8152600401602060405180830381600087803b158015610a9457600080fd5b505af1158015610aa8573d6000803e3d6000fd5b505050506040513d6020811015610abe57600080fd5b810190808051906020019092919050505091505090565b60368160038110610ae257fe5b016000915090505481565b6000803090506000813b9050600081149250505090565b6000818302905060006001905081610b1a610384565b1015610b2b57610b28610384565b91505b3373ffffffffffffffffffffffffffffffffffffffff166108fc839081150290604051600060405180830381858888f19350505050158015610b71573d6000803e3d6000fd5b507f2fda3525453650e1c58417dd4764ce9fc5c5f0f77f345a43758186d3d01909d181836040518083151581526020018281526020019250505060405180910390a150505050565b610bc1610cd4565b610bc9610cd4565b610bd1610cd4565b60005b6003811015610c3f5760006127108681610bea57fe5b06905080848360038110610bfa57fe5b6020020181815250506127108681610c0e57fe5b04955060178181610c1b57fe5b06838360038110610c2857fe5b602002018181525050508080600101915050610bd4565b508092505050919050565b8260038101928215610c79579160200282015b82811115610c78578251825591602001919060010190610c5d565b5b509050610c869190610cf6565b5090565b828054828255906000526020600020908101928215610cc3579182015b82811115610cc2578254825591600101919060010190610ca7565b5b509050610cd09190610cf6565b5090565b6040518060600160405280600390602082028036833780820191505090505090565b5b80821115610d0f576000816000905550600101610cf7565b509056fe436f6e747261637420696e7374616e63652068617320616c7265616479206265656e20696e697469616c697a6564a26469706673582212200288e8b6fac6789bfc02349b8cc3def34884cf024d1f4dfd94c20d5dd02a7eca64736f6c634300060c0033",
  "immutableReferences": {},
  "source": "// SPDX-License-Identifier: MIT\r\npragma solidity ^0.6.0;\r\n\r\n/// @title Decentralized slotmachine\r\n/// @author Parzivalza\r\n/// @notice A simple decentralized slotmachine game/backend \r\n\r\nimport \"@openzeppelin/upgrades-core/contracts/Initializable.sol\";\r\n\r\ncontract Slots is Initializable {\r\n    address public OracleAdress;\r\n    address private owner;\r\n    mapping(address => uint[])  playerList;\r\n    uint[3] public  Numbers;\r\n    \r\n    event Won(bool win, uint256 WinAmount);  \r\n    modifier onlyOwner()                {require(msg.sender == owner,   \"Only owner can call this function\");   _;}\r\n    modifier minAmount(uint _amount)    {require(msg.value >= _amount,  \"Transaction value to low\");            _;}\r\n\r\n    function initialize() public payable initializer {\r\n        owner = 0x259fF8f10E98dc30AFEf489095f88e0b9A9028ac;\r\n    }\r\n\r\n    function set_addressOracle(address _addy) public {\r\n        OracleAdress = address(_addy);\r\n    }\r\n\r\n    function CallOracle() public returns (bytes32){\r\n        Oracle2 o = Oracle2(OracleAdress);\r\n        return o.getRandomNumber();\r\n    }\r\n\r\n    function ReturnOracleNumber() public returns (uint256){\r\n        Oracle2 o = Oracle2(OracleAdress);\r\n        return o.returnNumber();  \r\n    }\r\n        \r\n    /// @notice Starts the slotgame when the user genereted the numbers before\r\n    /// @dev Depends on oracle for random numbers. Oracle needs to be called before issuing StartGame  \r\n    function StartGame() minAmount(1 ether) public payable {\r\n        uint256 amount = msg.value;\r\n        uint256 playerBalance = amount;\r\n        uint Slotwheel1 = Numbers[0];\r\n        uint Slotwheel2 = Numbers[1];\r\n        uint Slotwheel3 = Numbers[2];\r\n        \r\n        //Cherry in slot one and two fruits\r\n        if((Slotwheel1 > 15 && Slotwheel1 <= 19) && (Slotwheel2 <= 18) && (Slotwheel3 <= 18)){\r\n            CalculateWinnings(playerBalance, 1);\r\n        }\r\n        //Cherry in slot two and two fruits\r\n        if((Slotwheel1 <= 15) && (Slotwheel2 > 18 && Slotwheel2 <= 21) && (Slotwheel3 <= 18)){\r\n            CalculateWinnings(playerBalance, 1);\r\n        }\r\n        //Cherry in slot three and two fruits\r\n        if((Slotwheel1 <= 15) && (Slotwheel2 <= 18) && (Slotwheel3 > 18 && Slotwheel3 <= 21)){\r\n            CalculateWinnings(playerBalance, 1);\r\n        }\r\n        \r\n        //Cherries in slot one/two and one fruit\r\n        if((Slotwheel1 > 15 && Slotwheel1 <= 19) && (Slotwheel2 > 18 && Slotwheel2 <= 21) && (Slotwheel3 <= 18)){\r\n            CalculateWinnings(playerBalance, 4);\r\n        }\r\n        //Cherries in slot two/three and one fruit\r\n        if((Slotwheel1 <= 15) && (Slotwheel2 > 18 && Slotwheel2 <= 21) && (Slotwheel3 > 18 && Slotwheel3 <= 21)){\r\n            CalculateWinnings(playerBalance, 4);\r\n        }\r\n        //Cherries in slot one/three and one fruit\r\n        if((Slotwheel1 > 15 && Slotwheel1 <= 19) && (Slotwheel2 <= 18) && (Slotwheel3 > 18 && Slotwheel3 <= 21)){\r\n            CalculateWinnings(playerBalance, 4);\r\n        }\r\n        \r\n        //Random fruit combination (Lemon, Banana, Orange)\r\n        if(Slotwheel1 <= 15 && Slotwheel2 <= 18 && Slotwheel3 <= 18){\r\n            //All lemons\r\n            if(Slotwheel1 <= 5 && Slotwheel2 <= 6 && Slotwheel3 <= 6){\r\n                CalculateWinnings(playerBalance, 10);\r\n            }\r\n            //All Banana\r\n            if((Slotwheel1 > 5 && Slotwheel1 <= 10)&&(Slotwheel2 > 6 && Slotwheel2 <= 12)&&(Slotwheel3 > 6 && Slotwheel3 <= 12)){\r\n                CalculateWinnings(playerBalance, 10);\r\n            }\r\n            //ALl Orange\r\n            if((Slotwheel1 > 10 && Slotwheel1 <= 15)&&(Slotwheel2 > 12 && Slotwheel2 <= 18)&&(Slotwheel3 > 12 && Slotwheel3 <= 18)){\r\n                CalculateWinnings(playerBalance, 10);\r\n            }\r\n        }\r\n        \r\n        //All cherries\r\n        if((Slotwheel1 > 15 && Slotwheel1 <= 19) && (Slotwheel2 > 18 && Slotwheel2 <= 21) && (Slotwheel3 > 18 && Slotwheel3 <= 21)){\r\n            CalculateWinnings(playerBalance, 20);\r\n        }\r\n        //All Sevens\r\n        if((Slotwheel1 > 19 && Slotwheel1 <= 22) && (Slotwheel2 == 22) && (Slotwheel3 == 22)){\r\n            CalculateWinnings(playerBalance, 40);\r\n        }\r\n        //All BARs\r\n        if((Slotwheel1 == 23) && (Slotwheel2 == 23) && (Slotwheel3 == 23)){\r\n            CalculateWinnings(playerBalance, 60);\r\n        }\r\n    }\r\n    \r\n    \r\n    /// @notice Shows the bankbalance \r\n    /// @return Balance of the contract in wei\r\n    function ContractBalance() public view returns (uint){\r\n        return address(this).balance;\r\n    }\r\n    \r\n    function CalculateWinnings(uint Pbalance, uint Multiplier) private {\r\n        uint256 WinBalance = Pbalance * Multiplier;\r\n        bool win = true;\r\n        if(ContractBalance() < WinBalance){\r\n            WinBalance = ContractBalance();\r\n            }\r\n        msg.sender.transfer(WinBalance);\r\n        emit Won(win, WinBalance);\r\n    }\r\n    \r\n    /// @notice Alters the random number retrieved from the oracle and adds them to the playerList   \r\n    function alterNumbers() public {\r\n        uint256 Number = ReturnOracleNumber();\r\n        Numbers = SliceAndDice(Number);\r\n        playerList[msg.sender] = Numbers;\r\n    }\r\n    \r\n    /// @notice Gets the random number associated with the player\r\n    /// @return Array from mapping with the three random numbers\r\n    function getNumbers() public view returns(uint[] memory) {\r\n        return playerList[msg.sender];\r\n    }\r\n    \r\n    function SliceAndDice(uint256 input) internal returns (uint[3] memory) {\r\n        uint[3] memory array;\r\n        uint[3] memory random;\r\n        \r\n        for(uint i=0; i<3; i++) {\r\n            uint digit = input % 10000;\r\n            // do something with digit\r\n            array[i] = digit;\r\n            input /= 10000;\r\n            random[i] =digit % 23;\r\n        }\r\n        return random;\r\n    } \r\n    \r\n    /// @notice Destruct the smartcontract \r\n    /// @dev Only callable by specific owner\r\n    /*\r\n    function selfDestruct() onlyOwner payable public {\r\n        selfdestruct(msg.sender);\r\n    }\r\n    */\r\n}\r\n\r\ninterface Oracle2{\r\n    function getRandomNumber() external returns (bytes32);\r\n    function returnNumber() external returns (uint256);\r\n}",
  "sourcePath": "C:/Users/Lord R/Documents/GitHub/BC3_Jakob/PD-09/contracts/slots.sol",
  "compiler": {
    "name": "solc",
    "version": "0.6.12+commit.27d51765.Emscripten.clang"
  },
  "schemaVersion": "3.3.2",
  "updatedAt": "2020-12-18T15:32:12.203Z",
  "networkType": "ethereum",
  "devdoc": {
    "kind": "dev",
    "methods": {
      "ContractBalance()": {
        "returns": {
          "_0": "Balance of the contract in wei"
        }
      },
      "StartGame()": {
        "details": "Depends on oracle for random numbers. Oracle needs to be called before issuing StartGame  "
      },
      "getNumbers()": {
        "returns": {
          "_0": "Array from mapping with the three random numbers"
        }
      }
    },
    "version": 1
  },
  "userdoc": {
    "kind": "user",
    "methods": {
      "ContractBalance()": {
        "notice": "Shows the bankbalance "
      },
      "StartGame()": {
        "notice": "Starts the slotgame when the user genereted the numbers before"
      },
      "alterNumbers()": {
        "notice": "Alters the random number retrieved from the oracle and adds them to the playerList   "
      },
      "getNumbers()": {
        "notice": "Gets the random number associated with the player"
      }
    },
    "version": 1
  }
}