{
  "contractName": "Slots",
  "abi": [
    {
      "inputs": [],
      "stateMutability": "payable",
      "type": "constructor",
      "payable": true
    },
    {
      "anonymous": false,
      "inputs": [
        {
          "indexed": false,
          "internalType": "bool",
          "name": "win",
          "type": "bool"
        },
        {
          "indexed": false,
          "internalType": "uint256",
          "name": "WinAmount",
          "type": "uint256"
        }
      ],
      "name": "Won",
      "type": "event"
    },
    {
      "inputs": [],
      "name": "StartGame",
      "outputs": [],
      "stateMutability": "payable",
      "type": "function",
      "payable": true
    },
    {
      "inputs": [],
      "name": "Random",
      "outputs": [
        {
          "internalType": "uint256",
          "name": "",
          "type": "uint256"
        }
      ],
      "stateMutability": "view",
      "type": "function",
      "constant": true
    },
    {
      "inputs": [],
      "name": "ContractBalance",
      "outputs": [
        {
          "internalType": "uint256",
          "name": "",
          "type": "uint256"
        }
      ],
      "stateMutability": "view",
      "type": "function",
      "constant": true
    },
    {
      "inputs": [],
      "name": "getNumbers",
      "outputs": [
        {
          "internalType": "uint256[]",
          "name": "",
          "type": "uint256[]"
        }
      ],
      "stateMutability": "view",
      "type": "function",
      "constant": true
    }
  ],
  "bytecode": "0x6080604052610829806100136000396000f3fe60806040526004361061003f5760003560e01c80633b66805914610044578063604a6fa91461006f57806389f915f61461009a578063a3dfc36414610106575b600080fd5b34801561005057600080fd5b50610059610110565b6040518082815260200191505060405180910390f35b34801561007b57600080fd5b50610084610118565b6040518082815260200191505060405180910390f35b3480156100a657600080fd5b506100af610153565b6040518080602001828103825283818151815260200191508051906020019060200280838360005b838110156100f25780820151818401526020810190506100d7565b505050509050019250505060405180910390f35b61010e6101e7565b005b600047905090565b6000601742604051602001808281526020019150506040516020818303038152906040528051906020012060001c8161014d57fe5b06905090565b60606000803373ffffffffffffffffffffffffffffffffffffffff1673ffffffffffffffffffffffffffffffffffffffff1681526020019081526020016000208054806020026020016040519081016040528092919081815260200182805480156101dd57602002820191906000526020600020905b8154815260200190600101908083116101c9575b5050505050905090565b6000341161025d576040517f08c379a000000000000000000000000000000000000000000000000000000000815260040180806020018281038252600e8152602001807f42616c616e636520746f206c6f7700000000000000000000000000000000000081525060200191505060405180910390fd5b6000349050600160006102709190610763565b6000819050600061027f610118565b9050600181908060018154018082558091505060019003906000526020600020016000909190919091505560006102b4610118565b9050600181908060018154018082558091505060019003906000526020600020016000909190919091505560006102e9610118565b9050600181908060018154018082558091505060019003906000526020600020016000909190919091505560016000803373ffffffffffffffffffffffffffffffffffffffff1673ffffffffffffffffffffffffffffffffffffffff168152602001908152602001600020908054610362929190610784565b50600f83118015610374575060138311155b8015610381575060128211155b801561038e575060128111155b1561039f5761039e8460016106ae565b5b600f83111580156103bd57506012821180156103bc575060158211155b5b80156103ca575060128111155b156103db576103da8460016106ae565b5b600f83111580156103ed575060128211155b80156104065750601281118015610405575060158111155b5b15610417576104168460016106ae565b5b600f83118015610428575060138311155b80156104415750601282118015610440575060158211155b5b801561044e575060128111155b1561045f5761045e8460046106ae565b5b600f831115801561047d575060128211801561047c575060158211155b5b80156104965750601281118015610495575060158111155b5b156104a7576104a68460046106ae565b5b600f831180156104b8575060138311155b80156104c5575060128211155b80156104de57506012811180156104dd575060158111155b5b156104ef576104ee8460046106ae565b5b600f8311158015610501575060128211155b801561050e575060128111155b156105ec5760058311158015610525575060068211155b8015610532575060068111155b156105435761054284600a6106ae565b5b6005831180156105545750600a8311155b801561056d575060068211801561056c5750600c8211155b5b801561058657506006811180156105855750600c8111155b5b156105975761059684600a6106ae565b5b600a831180156105a85750600f8311155b80156105c15750600c821180156105c0575060128211155b5b80156105da5750600c811180156105d9575060128111155b5b156105eb576105ea84600a6106ae565b5b5b600f831180156105fd575060138311155b80156106165750601282118015610615575060158211155b5b801561062f575060128111801561062e575060158111155b5b156106405761063f8460146106ae565b5b601383118015610651575060168311155b801561065d5750601682145b80156106695750601681145b1561067a576106798460286106ae565b5b60178314801561068a5750601782145b80156106965750601781145b156106a7576106a684603c6106ae565b5b5050505050565b60008183029050600060019050816106c4610110565b10156106d5576106d2610110565b91505b3373ffffffffffffffffffffffffffffffffffffffff166108fc839081150290604051600060405180830381858888f1935050505015801561071b573d6000803e3d6000fd5b507f2fda3525453650e1c58417dd4764ce9fc5c5f0f77f345a43758186d3d01909d181836040518083151581526020018281526020019250505060405180910390a150505050565b508054600082559060005260206000209081019061078191906107d6565b50565b8280548282559060005260206000209081019282156107c55760005260206000209182015b828111156107c45782548255916001019190600101906107a9565b5b5090506107d291906107d6565b5090565b5b808211156107ef5760008160009055506001016107d7565b509056fea264697066735822122029dd36b6a1772281d8346196263279facc97bd8255077915b8269baf943b74b564736f6c634300060c0033",
  "immutableReferences": {},
  "source": "pragma solidity ^0.6.0;\r\n\r\ncontract Slots {\r\n    \r\n    mapping(address => uint[])  playerList;\r\n    uint[] Numbers;\r\n\r\n\r\n    // Setup an intial amount for the bank, supplied during the creation of the contract.    \r\n    constructor() public payable {\r\n    }\r\n\r\n    event Won(bool win, uint256 WinAmount);  \r\n    \r\n    function StartGame() public payable {\r\n        require(msg.value > 0, \"Balance to low\");\r\n        uint256 amount = msg.value;\r\n        delete Numbers;\r\n        uint256 playerBalance = amount;\r\n        //NOT random until oracalized for now they produce 3 times the same random number\r\n        uint Slotwheel1 = Random();\r\n        Numbers.push(Slotwheel1);\r\n        uint Slotwheel2 = Random();\r\n        Numbers.push(Slotwheel2);\r\n        uint Slotwheel3 = Random();\r\n        Numbers.push(Slotwheel3);\r\n        \r\n        playerList[msg.sender] = Numbers;\r\n        \r\n        //Cherry in slot one and two fruits\r\n        if((Slotwheel1 > 15 && Slotwheel1 <= 19) && (Slotwheel2 <= 18) && (Slotwheel3 <= 18)){\r\n            CalculateWinnings(playerBalance, 1);\r\n        }\r\n        //Cherry in slot two and two fruits\r\n        if((Slotwheel1 <= 15) && (Slotwheel2 > 18 && Slotwheel2 <= 21) && (Slotwheel3 <= 18)){\r\n            CalculateWinnings(playerBalance, 1);\r\n        }\r\n        //Cherry in slot three and two fruits\r\n        if((Slotwheel1 <= 15) && (Slotwheel2 <= 18) && (Slotwheel3 > 18 && Slotwheel3 <= 21)){\r\n            CalculateWinnings(playerBalance, 1);\r\n        }\r\n        \r\n        //Cherries in slot one/two and one fruit\r\n        if((Slotwheel1 > 15 && Slotwheel1 <= 19) && (Slotwheel2 > 18 && Slotwheel2 <= 21) && (Slotwheel3 <= 18)){\r\n            CalculateWinnings(playerBalance, 4);\r\n        }\r\n        //Cherries in slot two/three and one fruit\r\n        if((Slotwheel1 <= 15) && (Slotwheel2 > 18 && Slotwheel2 <= 21) && (Slotwheel3 > 18 && Slotwheel3 <= 21)){\r\n            CalculateWinnings(playerBalance, 4);\r\n        }\r\n        //Cherries in slot one/three and one fruit\r\n        if((Slotwheel1 > 15 && Slotwheel1 <= 19) && (Slotwheel2 <= 18) && (Slotwheel3 > 18 && Slotwheel3 <= 21)){\r\n            CalculateWinnings(playerBalance, 4);\r\n        }\r\n        \r\n        //Random fruit combination (Lemon, Banana, Orange)\r\n        if(Slotwheel1 <= 15 && Slotwheel2 <= 18 && Slotwheel3 <= 18){\r\n            //All lemons\r\n            if(Slotwheel1 <= 5 && Slotwheel2 <= 6 && Slotwheel3 <= 6){\r\n                CalculateWinnings(playerBalance, 10);\r\n            }\r\n            //All Banana\r\n            if((Slotwheel1 > 5 && Slotwheel1 <= 10)&&(Slotwheel2 > 6 && Slotwheel2 <= 12)&&(Slotwheel3 > 6 && Slotwheel3 <= 12)){\r\n                CalculateWinnings(playerBalance, 10);\r\n            }\r\n            //ALl Orange\r\n            if((Slotwheel1 > 10 && Slotwheel1 <= 15)&&(Slotwheel2 > 12 && Slotwheel2 <= 18)&&(Slotwheel3 > 12 && Slotwheel3 <= 18)){\r\n                CalculateWinnings(playerBalance, 10);\r\n            }\r\n        }\r\n        \r\n        //All cherries\r\n        if((Slotwheel1 > 15 && Slotwheel1 <= 19) && (Slotwheel2 > 18 && Slotwheel2 <= 21) && (Slotwheel3 > 18 && Slotwheel3 <= 21)){\r\n            CalculateWinnings(playerBalance, 20);\r\n        }\r\n        //All Sevens\r\n        if((Slotwheel1 > 19 && Slotwheel1 <= 22) && (Slotwheel2 == 22) && (Slotwheel3 == 22)){\r\n            CalculateWinnings(playerBalance, 40);\r\n        }\r\n        //All BARs\r\n        if((Slotwheel1 == 23) && (Slotwheel2 == 23) && (Slotwheel3 == 23)){\r\n            CalculateWinnings(playerBalance, 60);\r\n        }\r\n    }\r\n    \r\n    function Random() public view returns (uint) {\r\n        return uint(keccak256(abi.encodePacked(block.timestamp)))%23;\r\n    }\r\n    \r\n    function ContractBalance() public view returns (uint){\r\n        return address(this).balance;\r\n    }\r\n    \r\n    function CalculateWinnings(uint Pbalance, uint Multiplier) private {\r\n        uint256 WinBalance = Pbalance * Multiplier;\r\n        bool win = true;\r\n        if(ContractBalance() < WinBalance){\r\n            WinBalance = ContractBalance();\r\n            }\r\n        msg.sender.transfer(WinBalance);\r\n        emit Won(win, WinBalance);\r\n        }\r\n        \r\n    function getNumbers() public view returns(uint[] memory) {\r\n        return playerList[msg.sender];\r\n    }\r\n}",
  "sourcePath": "C:/Users/Lord R/Documents/GitHub/BC3_Jakob/PD-09/Verify etherscan/contracts/Slots.sol",
  "compiler": {
    "name": "solc",
    "version": "0.6.12+commit.27d51765.Emscripten.clang"
  },
  "schemaVersion": "3.3.2",
  "updatedAt": "2020-12-20T14:57:35.917Z",
  "networkType": "ethereum",
  "devdoc": {
    "kind": "dev",
    "methods": {},
    "version": 1
  },
  "userdoc": {
    "kind": "user",
    "methods": {},
    "version": 1
  }
}