{
  "contractName": "Oracle",
  "abi": [
    {
      "inputs": [],
      "stateMutability": "payable",
      "type": "constructor",
      "payable": true
    },
    {
      "inputs": [],
      "name": "Number",
      "outputs": [
        {
          "internalType": "uint256",
          "name": "",
          "type": "uint256"
        }
      ],
      "stateMutability": "view",
      "type": "function",
      "constant": true
    },
    {
      "inputs": [
        {
          "internalType": "bytes32",
          "name": "requestId",
          "type": "bytes32"
        },
        {
          "internalType": "uint256",
          "name": "randomness",
          "type": "uint256"
        }
      ],
      "name": "rawFulfillRandomness",
      "outputs": [],
      "stateMutability": "nonpayable",
      "type": "function"
    },
    {
      "inputs": [],
      "name": "getRandomNumber",
      "outputs": [
        {
          "internalType": "bytes32",
          "name": "requestId",
          "type": "bytes32"
        }
      ],
      "stateMutability": "nonpayable",
      "type": "function"
    },
    {
      "inputs": [],
      "name": "returnNumber",
      "outputs": [
        {
          "internalType": "uint256",
          "name": "Number",
          "type": "uint256"
        }
      ],
      "stateMutability": "nonpayable",
      "type": "function"
    }
  ],
  "bytecode": "0x60c060405273b3dccb4cf7a26f6cf6b120cf5a73875b7bbc655b7301be23585060835e02b77ef475b0cc51aa1e07098173ffffffffffffffffffffffffffffffffffffffff1660a08173ffffffffffffffffffffffffffffffffffffffff1660601b815250508073ffffffffffffffffffffffffffffffffffffffff1660808173ffffffffffffffffffffffffffffffffffffffff1660601b8152505050507f2ed0feb3e7fd2022120aa84fab1945545a9f2ffc9076fd6156fa96eaff4c131160001b60018190555067016345785d8a000060028190555060805160601c60a05160601c6106a56101096000398060f0528061036a5250806101c4528061032e52506106a56000f3fe608060405234801561001057600080fd5b506004361061004c5760003560e01c80633450bd6a14610051578063624de7251461006f57806394985ddd1461008d578063dbdff2c1146100c5575b600080fd5b6100596100e3565b6040518082815260200191505060405180910390f35b6100776100e8565b6040518082815260200191505060405180910390f35b6100c3600480360360408110156100a357600080fd5b8101908080359060200190929190803590602001909291905050506100ee565b005b6100cd6101bd565b6040518082815260200191505060405180910390f35b600090565b60035481565b7f000000000000000000000000000000000000000000000000000000000000000073ffffffffffffffffffffffffffffffffffffffff163373ffffffffffffffffffffffffffffffffffffffff16146101af576040517f08c379a000000000000000000000000000000000000000000000000000000000815260040180806020018281038252601f8152602001807f4f6e6c7920565246436f6f7264696e61746f722063616e2066756c66696c6c0081525060200191505060405180910390fd5b6101b9828261031f565b5050565b60006002547f000000000000000000000000000000000000000000000000000000000000000073ffffffffffffffffffffffffffffffffffffffff166370a08231306040518263ffffffff1660e01b8152600401808273ffffffffffffffffffffffffffffffffffffffff16815260200191505060206040518083038186803b15801561024957600080fd5b505afa15801561025d573d6000803e3d6000fd5b505050506040513d602081101561027357600080fd5b810190808051906020019092919050505010156102db576040517f08c379a000000000000000000000000000000000000000000000000000000000815260040180806020018281038252602b815260200180610645602b913960400191505060405180910390fd5b60004340604051602001808281526020019150506040516020818303038152906040528051906020012060001c90506103196001546002548361032a565b91505090565b806003819055505050565b60007f000000000000000000000000000000000000000000000000000000000000000073ffffffffffffffffffffffffffffffffffffffff16634000aea07f000000000000000000000000000000000000000000000000000000000000000085878660405160200180838152602001828152602001925050506040516020818303038152906040526040518463ffffffff1660e01b8152600401808473ffffffffffffffffffffffffffffffffffffffff16815260200183815260200180602001828103825283818151815260200191508051906020019080838360005b83811015610423578082015181840152602081019050610408565b50505050905090810190601f1680156104505780820380516001836020036101000a031916815260200191505b50945050505050602060405180830381600087803b15801561047157600080fd5b505af1158015610485573d6000803e3d6000fd5b505050506040513d602081101561049b57600080fd5b81019080805190602001909291905050505060006104cd8584306000808a81526020019081526020016000205461051f565b90506104f560016000808881526020019081526020016000205461058390919063ffffffff16565b60008087815260200190815260200160002081905550610515858261060b565b9150509392505050565b600084848484604051602001808581526020018481526020018373ffffffffffffffffffffffffffffffffffffffff1681526020018281526020019450505050506040516020818303038152906040528051906020012060001c9050949350505050565b600080828401905083811015610601576040517f08c379a000000000000000000000000000000000000000000000000000000000815260040180806020018281038252601b8152602001807f536166654d6174683a206164646974696f6e206f766572666c6f77000000000081525060200191505060405180910390fd5b8091505092915050565b6000828260405160200180838152602001828152602001925050506040516020818303038152906040528051906020012090509291505056fe4e6f7420656e6f756768204c494e4b202d2066696c6c20636f6e7472616374207769746820666175636574a2646970667358221220a70cce4442f6ece55e95e89818801842d66ef734fc4ab7104552d6c40fc7a1c364736f6c634300060c0033",
  "immutableReferences": {
    "436": [
      {
        "length": 32,
        "start": 452
      },
      {
        "length": 32,
        "start": 814
      }
    ],
    "438": [
      {
        "length": 32,
        "start": 240
      },
      {
        "length": 32,
        "start": 874
      }
    ]
  },
  "source": "// SPDX-License-Identifier: MIT\r\npragma solidity ^0.6.0;\r\n\r\n/// @title Random Oracle\r\n/// @author Parzivalza\r\n/// @notice Seperate chainlink call contract \r\n\r\nimport \"./VRFConsumerBase.sol\";\r\n\r\ncontract Oracle is VRFConsumerBase {\r\n\r\n    bytes32 internal keyHash;\r\n    uint256 internal fee;\r\n    uint256 public Number;\r\n\r\n    constructor() \r\n        VRFConsumerBase(\r\n            0xb3dCcb4Cf7a26f6cf6B120Cf5A73875B7BBc655B, // VRF Coordinator\r\n            0x01BE23585060835E02B77ef475b0Cc51aA1e0709  // LINK Token\r\n        ) public payable\r\n    {\r\n        keyHash = 0x2ed0feb3e7fd2022120aa84fab1945545a9f2ffc9076fd6156fa96eaff4c1311;\r\n        fee = 0.1 * 10 ** 18; // 0.1 LINK\r\n    }\r\n\r\n    /// @notice Calls chainlink oracle for random numbers\r\n    /// @dev Make sure there is enough LINK on the contract for oracle call\r\n    /// @return requestId the call id for the oracle\r\n    function getRandomNumber() public returns (bytes32 requestId) {\r\n        require(LINK.balanceOf(address(this)) >= fee, \"Not enough LINK - fill contract with faucet\");\r\n        uint256 seed = uint256(keccak256(abi.encode(blockhash(block.number))));\r\n        return requestRandomness(keyHash, fee, seed);\r\n    }\r\n\r\n    function fulfillRandomness(bytes32 requestId, uint256 randomness) internal override {\r\n        Number = randomness;\r\n    }\r\n\r\n    function returnNumber() public returns (uint256 Number){\r\n        return Number;\r\n    }\r\n}",
  "sourcePath": "C:/Users/Lord R/Documents/GitHub/BC3_Jakob/PD-14/contracts/Oracle.sol",
  "compiler": {
    "name": "solc",
    "version": "0.6.12+commit.27d51765.Emscripten.clang"
  },
  "schemaVersion": "3.3.2",
  "updatedAt": "2021-01-14T10:15:23.953Z",
  "networkType": "ethereum",
  "devdoc": {
    "kind": "dev",
    "methods": {
      "getRandomNumber()": {
        "details": "Make sure there is enough LINK on the contract for oracle call",
        "returns": {
          "requestId": "the call id for the oracle"
        }
      }
    },
    "version": 1
  },
  "userdoc": {
    "kind": "user",
    "methods": {
      "getRandomNumber()": {
        "notice": "Calls chainlink oracle for random numbers"
      }
    },
    "version": 1
  }
}