{
  "contractName": "Slots",
  "abi": [
    {
      "inputs": [],
      "stateMutability": "payable",
      "type": "constructor",
      "payable": true
    },
    {
      "anonymous": false,
      "inputs": [
        {
          "indexed": true,
          "internalType": "address",
          "name": "previousOwner",
          "type": "address"
        },
        {
          "indexed": true,
          "internalType": "address",
          "name": "newOwner",
          "type": "address"
        }
      ],
      "name": "OwnershipTransferred",
      "type": "event"
    },
    {
      "anonymous": false,
      "inputs": [
        {
          "indexed": false,
          "internalType": "bool",
          "name": "win",
          "type": "bool"
        },
        {
          "indexed": false,
          "internalType": "uint256",
          "name": "WinAmount",
          "type": "uint256"
        }
      ],
      "name": "Won",
      "type": "event"
    },
    {
      "inputs": [
        {
          "internalType": "uint256",
          "name": "",
          "type": "uint256"
        }
      ],
      "name": "Numbers",
      "outputs": [
        {
          "internalType": "uint256",
          "name": "",
          "type": "uint256"
        }
      ],
      "stateMutability": "view",
      "type": "function",
      "constant": true
    },
    {
      "inputs": [],
      "name": "OracleAdress",
      "outputs": [
        {
          "internalType": "address",
          "name": "",
          "type": "address"
        }
      ],
      "stateMutability": "view",
      "type": "function",
      "constant": true
    },
    {
      "inputs": [],
      "name": "owner",
      "outputs": [
        {
          "internalType": "address",
          "name": "",
          "type": "address"
        }
      ],
      "stateMutability": "view",
      "type": "function",
      "constant": true
    },
    {
      "inputs": [],
      "name": "renounceOwnership",
      "outputs": [],
      "stateMutability": "nonpayable",
      "type": "function"
    },
    {
      "inputs": [
        {
          "internalType": "address",
          "name": "newOwner",
          "type": "address"
        }
      ],
      "name": "transferOwnership",
      "outputs": [],
      "stateMutability": "nonpayable",
      "type": "function"
    },
    {
      "inputs": [
        {
          "internalType": "address",
          "name": "_addy",
          "type": "address"
        }
      ],
      "name": "set_addressOracle",
      "outputs": [],
      "stateMutability": "nonpayable",
      "type": "function"
    },
    {
      "inputs": [],
      "name": "CallOracle",
      "outputs": [
        {
          "internalType": "bytes32",
          "name": "",
          "type": "bytes32"
        }
      ],
      "stateMutability": "nonpayable",
      "type": "function"
    },
    {
      "inputs": [],
      "name": "ReturnOracleNumber",
      "outputs": [
        {
          "internalType": "uint256",
          "name": "",
          "type": "uint256"
        }
      ],
      "stateMutability": "nonpayable",
      "type": "function"
    },
    {
      "inputs": [],
      "name": "StartGame",
      "outputs": [],
      "stateMutability": "payable",
      "type": "function",
      "payable": true
    },
    {
      "inputs": [],
      "name": "ContractBalance",
      "outputs": [
        {
          "internalType": "uint256",
          "name": "",
          "type": "uint256"
        }
      ],
      "stateMutability": "view",
      "type": "function",
      "constant": true
    },
    {
      "inputs": [],
      "name": "alterNumbers",
      "outputs": [],
      "stateMutability": "nonpayable",
      "type": "function"
    },
    {
      "inputs": [],
      "name": "getNumbers",
      "outputs": [
        {
          "internalType": "uint256[]",
          "name": "",
          "type": "uint256[]"
        }
      ],
      "stateMutability": "view",
      "type": "function",
      "constant": true
    },
    {
      "inputs": [],
      "name": "selfDestruct",
      "outputs": [],
      "stateMutability": "payable",
      "type": "function",
      "payable": true
    }
  ],
  "bytecode": "0x608060405260006100146100b760201b60201c565b9050806000806101000a81548173ffffffffffffffffffffffffffffffffffffffff021916908373ffffffffffffffffffffffffffffffffffffffff1602179055508073ffffffffffffffffffffffffffffffffffffffff16600073ffffffffffffffffffffffffffffffffffffffff167f8be0079c531659141344cd1fd0a4f28419497f9722a3daafe3b4186f6b6457e060405160405180910390a3506100bf565b600033905090565b61124a806100ce6000396000f3fe6080604052600436106100c25760003560e01c80639cb8a26a1161007f578063dfa85eb011610059578063dfa85eb01461025d578063ecd651a11461029e578063f2fde38b146102c9578063fe99d72b1461031a576100c2565b80639cb8a26a14610232578063a3dfc3641461023c578063cc04049814610246576100c2565b8063031a65ca146100c75780631d8a7579146101185780633b66805914610143578063715018a61461016e57806389f915f6146101855780638da5cb5b146101f1575b600080fd5b3480156100d357600080fd5b50610116600480360360208110156100ea57600080fd5b81019080803573ffffffffffffffffffffffffffffffffffffffff169060200190929190505050610369565b005b34801561012457600080fd5b5061012d610475565b6040518082815260200191505060405180910390f35b34801561014f57600080fd5b50610158610526565b6040518082815260200191505060405180910390f35b34801561017a57600080fd5b5061018361052e565b005b34801561019157600080fd5b5061019a6106b4565b6040518080602001828103825283818151815260200191508051906020019060200280838360005b838110156101dd5780820151818401526020810190506101c2565b505050509050019250505060405180910390f35b3480156101fd57600080fd5b50610206610749565b604051808273ffffffffffffffffffffffffffffffffffffffff16815260200191505060405180910390f35b61023a610772565b005b610244610853565b005b34801561025257600080fd5b5061025b610c64565b005b34801561026957600080fd5b50610272610cdd565b604051808273ffffffffffffffffffffffffffffffffffffffff16815260200191505060405180910390f35b3480156102aa57600080fd5b506102b3610d03565b6040518082815260200191505060405180910390f35b3480156102d557600080fd5b50610318600480360360208110156102ec57600080fd5b81019080803573ffffffffffffffffffffffffffffffffffffffff169060200190929190505050610db4565b005b34801561032657600080fd5b506103536004803603602081101561033d57600080fd5b8101908080359060200190929190505050610fbf565b6040518082815260200191505060405180910390f35b610371610fd7565b73ffffffffffffffffffffffffffffffffffffffff1660008054906101000a900473ffffffffffffffffffffffffffffffffffffffff1673ffffffffffffffffffffffffffffffffffffffff1614610431576040517f08c379a00000000000000000000000000000000000000000000000000000000081526004018080602001828103825260208152602001807f4f776e61626c653a2063616c6c6572206973206e6f7420746865206f776e657281525060200191505060405180910390fd5b80600160006101000a81548173ffffffffffffffffffffffffffffffffffffffff021916908373ffffffffffffffffffffffffffffffffffffffff16021790555050565b600080600160009054906101000a900473ffffffffffffffffffffffffffffffffffffffff1690508073ffffffffffffffffffffffffffffffffffffffff16633450bd6a6040518163ffffffff1660e01b8152600401602060405180830381600087803b1580156104e557600080fd5b505af11580156104f9573d6000803e3d6000fd5b505050506040513d602081101561050f57600080fd5b810190808051906020019092919050505091505090565b600047905090565b610536610fd7565b73ffffffffffffffffffffffffffffffffffffffff1660008054906101000a900473ffffffffffffffffffffffffffffffffffffffff1673ffffffffffffffffffffffffffffffffffffffff16146105f6576040517f08c379a00000000000000000000000000000000000000000000000000000000081526004018080602001828103825260208152602001807f4f776e61626c653a2063616c6c6572206973206e6f7420746865206f776e657281525060200191505060405180910390fd5b600073ffffffffffffffffffffffffffffffffffffffff1660008054906101000a900473ffffffffffffffffffffffffffffffffffffffff1673ffffffffffffffffffffffffffffffffffffffff167f8be0079c531659141344cd1fd0a4f28419497f9722a3daafe3b4186f6b6457e060405160405180910390a360008060006101000a81548173ffffffffffffffffffffffffffffffffffffffff021916908373ffffffffffffffffffffffffffffffffffffffff160217905550565b6060600260003373ffffffffffffffffffffffffffffffffffffffff1673ffffffffffffffffffffffffffffffffffffffff16815260200190815260200160002080548060200260200160405190810160405280929190818152602001828054801561073f57602002820191906000526020600020905b81548152602001906001019080831161072b575b5050505050905090565b60008060009054906101000a900473ffffffffffffffffffffffffffffffffffffffff16905090565b61077a610fd7565b73ffffffffffffffffffffffffffffffffffffffff1660008054906101000a900473ffffffffffffffffffffffffffffffffffffffff1673ffffffffffffffffffffffffffffffffffffffff161461083a576040517f08c379a00000000000000000000000000000000000000000000000000000000081526004018080602001828103825260208152602001807f4f776e61626c653a2063616c6c6572206973206e6f7420746865206f776e657281525060200191505060405180910390fd5b3373ffffffffffffffffffffffffffffffffffffffff16ff5b670de0b6b3a7640000803410156108d2576040517f08c379a00000000000000000000000000000000000000000000000000000000081526004018080602001828103825260188152602001807f5472616e73616374696f6e2076616c756520746f206c6f77000000000000000081525060200191505060405180910390fd5b60003490506000819050600060036000600381106108ec57fe5b015490506000600360016003811061090057fe5b015490506000600360026003811061091457fe5b01549050600f83118015610929575060138311155b8015610936575060128211155b8015610943575060128111155b1561095457610953846001610fdf565b5b600f83111580156109725750601282118015610971575060158211155b5b801561097f575060128111155b156109905761098f846001610fdf565b5b600f83111580156109a2575060128211155b80156109bb57506012811180156109ba575060158111155b5b156109cc576109cb846001610fdf565b5b600f831180156109dd575060138311155b80156109f657506012821180156109f5575060158211155b5b8015610a03575060128111155b15610a1457610a13846004610fdf565b5b600f8311158015610a325750601282118015610a31575060158211155b5b8015610a4b5750601281118015610a4a575060158111155b5b15610a5c57610a5b846004610fdf565b5b600f83118015610a6d575060138311155b8015610a7a575060128211155b8015610a935750601281118015610a92575060158111155b5b15610aa457610aa3846004610fdf565b5b600f8311158015610ab6575060128211155b8015610ac3575060128111155b15610ba15760058311158015610ada575060068211155b8015610ae7575060068111155b15610af857610af784600a610fdf565b5b600583118015610b095750600a8311155b8015610b225750600682118015610b215750600c8211155b5b8015610b3b5750600681118015610b3a5750600c8111155b5b15610b4c57610b4b84600a610fdf565b5b600a83118015610b5d5750600f8311155b8015610b765750600c82118015610b75575060128211155b5b8015610b8f5750600c81118015610b8e575060128111155b5b15610ba057610b9f84600a610fdf565b5b5b600f83118015610bb2575060138311155b8015610bcb5750601282118015610bca575060158211155b5b8015610be45750601281118015610be3575060158111155b5b15610bf557610bf4846014610fdf565b5b601383118015610c06575060168311155b8015610c125750601682145b8015610c1e5750601681145b15610c2f57610c2e846028610fdf565b5b601783148015610c3f5750601782145b8015610c4b5750601781145b15610c5c57610c5b84603c610fdf565b5b505050505050565b6000610c6e610475565b9050610c7981611094565b6003906003610c89929190611125565b506003600260003373ffffffffffffffffffffffffffffffffffffffff1673ffffffffffffffffffffffffffffffffffffffff168152602001908152602001600020906003610cd9929190611165565b5050565b600160009054906101000a900473ffffffffffffffffffffffffffffffffffffffff1681565b600080600160009054906101000a900473ffffffffffffffffffffffffffffffffffffffff1690508073ffffffffffffffffffffffffffffffffffffffff1663dbdff2c16040518163ffffffff1660e01b8152600401602060405180830381600087803b158015610d7357600080fd5b505af1158015610d87573d6000803e3d6000fd5b505050506040513d6020811015610d9d57600080fd5b810190808051906020019092919050505091505090565b610dbc610fd7565b73ffffffffffffffffffffffffffffffffffffffff1660008054906101000a900473ffffffffffffffffffffffffffffffffffffffff1673ffffffffffffffffffffffffffffffffffffffff1614610e7c576040517f08c379a00000000000000000000000000000000000000000000000000000000081526004018080602001828103825260208152602001807f4f776e61626c653a2063616c6c6572206973206e6f7420746865206f776e657281525060200191505060405180910390fd5b600073ffffffffffffffffffffffffffffffffffffffff168173ffffffffffffffffffffffffffffffffffffffff161415610f02576040517f08c379a00000000000000000000000000000000000000000000000000000000081526004018080602001828103825260268152602001806111ef6026913960400191505060405180910390fd5b8073ffffffffffffffffffffffffffffffffffffffff1660008054906101000a900473ffffffffffffffffffffffffffffffffffffffff1673ffffffffffffffffffffffffffffffffffffffff167f8be0079c531659141344cd1fd0a4f28419497f9722a3daafe3b4186f6b6457e060405160405180910390a3806000806101000a81548173ffffffffffffffffffffffffffffffffffffffff021916908373ffffffffffffffffffffffffffffffffffffffff16021790555050565b60038160038110610fcc57fe5b016000915090505481565b600033905090565b6000818302905060006001905081610ff5610526565b101561100657611003610526565b91505b3373ffffffffffffffffffffffffffffffffffffffff166108fc839081150290604051600060405180830381858888f1935050505015801561104c573d6000803e3d6000fd5b507f2fda3525453650e1c58417dd4764ce9fc5c5f0f77f345a43758186d3d01909d181836040518083151581526020018281526020019250505060405180910390a150505050565b61109c6111af565b6110a46111af565b6110ac6111af565b60005b600381101561111a57600061271086816110c557fe5b069050808483600381106110d557fe5b60200201818152505061271086816110e957fe5b049550601781816110f657fe5b0683836003811061110357fe5b6020020181815250505080806001019150506110af565b508092505050919050565b8260038101928215611154579160200282015b82811115611153578251825591602001919060010190611138565b5b50905061116191906111d1565b5090565b82805482825590600052602060002090810192821561119e579182015b8281111561119d578254825591600101919060010190611182565b5b5090506111ab91906111d1565b5090565b6040518060600160405280600390602082028036833780820191505090505090565b5b808211156111ea5760008160009055506001016111d2565b509056fe4f776e61626c653a206e6577206f776e657220697320746865207a65726f2061646472657373a26469706673582212206cedbc4689660aa68d5a0f6ae073e7229e77076023077e353270914f2791631d64736f6c634300060c0033",
  "immutableReferences": {},
  "source": "// SPDX-License-Identifier: MIT\r\npragma solidity ^0.6.0;\r\n\r\n/// @title Decentralized slotmachine\r\n/// @author Parzivalza\r\n/// @notice A simple decentralized slotmachine game/backend \r\n\r\nimport \"@openzeppelin/contracts/access/Ownable.sol\";\r\n\r\ncontract Slots is Ownable {\r\n    address public OracleAdress;\r\n    mapping(address => uint[]) playerList;\r\n    uint[3] public Numbers;\r\n    \r\n    event Won(bool win, uint256 WinAmount);  \r\n    modifier minAmount(uint _amount)    {require(msg.value >= _amount,  \"Transaction value to low\");            _;}\r\n\r\n    constructor() public payable Ownable(){\r\n    }\r\n\r\n    function set_addressOracle(address _addy) public onlyOwner{\r\n        OracleAdress = address(_addy);\r\n    }\r\n\r\n    function CallOracle() public returns (bytes32){\r\n        Oracle2 o = Oracle2(OracleAdress);\r\n        return o.getRandomNumber();\r\n    }\r\n\r\n    function ReturnOracleNumber() public returns (uint256){\r\n        Oracle2 o = Oracle2(OracleAdress);\r\n        return o.returnNumber();  \r\n    }\r\n        \r\n    /// @notice Starts the slotgame when the user genereted the numbers before\r\n    /// @dev Depends on oracle for random numbers. Oracle needs to be called before issuing StartGame  \r\n    function StartGame() minAmount(1 ether) public payable {\r\n        uint256 amount = msg.value;\r\n        uint256 playerBalance = amount;\r\n        uint Slotwheel1 = Numbers[0];\r\n        uint Slotwheel2 = Numbers[1];\r\n        uint Slotwheel3 = Numbers[2];\r\n        \r\n        //Cherry in slot one and two fruits\r\n        if((Slotwheel1 > 15 && Slotwheel1 <= 19) && (Slotwheel2 <= 18) && (Slotwheel3 <= 18)){\r\n            CalculateWinnings(playerBalance, 1);\r\n        }\r\n        //Cherry in slot two and two fruits\r\n        if((Slotwheel1 <= 15) && (Slotwheel2 > 18 && Slotwheel2 <= 21) && (Slotwheel3 <= 18)){\r\n            CalculateWinnings(playerBalance, 1);\r\n        }\r\n        //Cherry in slot three and two fruits\r\n        if((Slotwheel1 <= 15) && (Slotwheel2 <= 18) && (Slotwheel3 > 18 && Slotwheel3 <= 21)){\r\n            CalculateWinnings(playerBalance, 1);\r\n        }\r\n        \r\n        //Cherries in slot one/two and one fruit\r\n        if((Slotwheel1 > 15 && Slotwheel1 <= 19) && (Slotwheel2 > 18 && Slotwheel2 <= 21) && (Slotwheel3 <= 18)){\r\n            CalculateWinnings(playerBalance, 4);\r\n        }\r\n        //Cherries in slot two/three and one fruit\r\n        if((Slotwheel1 <= 15) && (Slotwheel2 > 18 && Slotwheel2 <= 21) && (Slotwheel3 > 18 && Slotwheel3 <= 21)){\r\n            CalculateWinnings(playerBalance, 4);\r\n        }\r\n        //Cherries in slot one/three and one fruit\r\n        if((Slotwheel1 > 15 && Slotwheel1 <= 19) && (Slotwheel2 <= 18) && (Slotwheel3 > 18 && Slotwheel3 <= 21)){\r\n            CalculateWinnings(playerBalance, 4);\r\n        }\r\n        \r\n        //Random fruit combination (Lemon, Banana, Orange)\r\n        if(Slotwheel1 <= 15 && Slotwheel2 <= 18 && Slotwheel3 <= 18){\r\n            //All lemons\r\n            if(Slotwheel1 <= 5 && Slotwheel2 <= 6 && Slotwheel3 <= 6){\r\n                CalculateWinnings(playerBalance, 10);\r\n            }\r\n            //All Banana\r\n            if((Slotwheel1 > 5 && Slotwheel1 <= 10)&&(Slotwheel2 > 6 && Slotwheel2 <= 12)&&(Slotwheel3 > 6 && Slotwheel3 <= 12)){\r\n                CalculateWinnings(playerBalance, 10);\r\n            }\r\n            //ALl Orange\r\n            if((Slotwheel1 > 10 && Slotwheel1 <= 15)&&(Slotwheel2 > 12 && Slotwheel2 <= 18)&&(Slotwheel3 > 12 && Slotwheel3 <= 18)){\r\n                CalculateWinnings(playerBalance, 10);\r\n            }\r\n        }\r\n        \r\n        //All cherries\r\n        if((Slotwheel1 > 15 && Slotwheel1 <= 19) && (Slotwheel2 > 18 && Slotwheel2 <= 21) && (Slotwheel3 > 18 && Slotwheel3 <= 21)){\r\n            CalculateWinnings(playerBalance, 20);\r\n        }\r\n        //All Sevens\r\n        if((Slotwheel1 > 19 && Slotwheel1 <= 22) && (Slotwheel2 == 22) && (Slotwheel3 == 22)){\r\n            CalculateWinnings(playerBalance, 40);\r\n        }\r\n        //All BARs\r\n        if((Slotwheel1 == 23) && (Slotwheel2 == 23) && (Slotwheel3 == 23)){\r\n            CalculateWinnings(playerBalance, 60);\r\n        }\r\n    }\r\n    \r\n    \r\n    /// @notice Shows the bankbalance \r\n    /// @return Balance of the contract in wei\r\n    function ContractBalance() public view returns (uint){\r\n        return address(this).balance;\r\n    }\r\n    \r\n    function CalculateWinnings(uint Pbalance, uint Multiplier) private {\r\n        uint256 WinBalance = Pbalance * Multiplier;\r\n        bool win = true;\r\n        if(ContractBalance() < WinBalance){\r\n            WinBalance = ContractBalance();\r\n            }\r\n        msg.sender.transfer(WinBalance);\r\n        emit Won(win, WinBalance);\r\n    }\r\n    \r\n    /// @notice Alters the random number retrieved from the oracle and adds them to the playerList   \r\n    function alterNumbers() public {\r\n        uint256 Number = ReturnOracleNumber();\r\n        Numbers = SliceAndDice(Number);\r\n        playerList[msg.sender] = Numbers;\r\n    }\r\n    \r\n    /// @notice Gets the random number associated with the player\r\n    /// @return Array from mapping with the three random numbers\r\n    function getNumbers() public view returns(uint[] memory) {\r\n        return playerList[msg.sender];\r\n    }\r\n    \r\n    function SliceAndDice(uint256 input) internal returns (uint[3] memory) {\r\n        uint[3] memory array;\r\n        uint[3] memory random;\r\n        \r\n        for(uint i=0; i<3; i++) {\r\n            uint digit = input % 10000;\r\n            // do something with digit\r\n            array[i] = digit;\r\n            input /= 10000;\r\n            random[i] =digit % 23;\r\n        }\r\n        return random;\r\n    } \r\n    \r\n    /// @notice Destruct the smartcontract \r\n    /// @dev Only callable by specific owner\r\n    \r\n    function selfDestruct() payable public onlyOwner{\r\n        selfdestruct(msg.sender);\r\n    }\r\n    \r\n}\r\n\r\ninterface Oracle2{\r\n    function getRandomNumber() external returns (bytes32);\r\n    function returnNumber() external returns (uint256);\r\n}",
  "sourcePath": "C:/Users/Lord R/Documents/GitHub/BC3_Jakob/PD-14/contracts/slots.sol",
  "compiler": {
    "name": "solc",
    "version": "0.6.12+commit.27d51765.Emscripten.clang"
  },
  "schemaVersion": "3.3.2",
  "updatedAt": "2021-01-14T10:15:23.944Z",
  "networkType": "ethereum",
  "devdoc": {
    "kind": "dev",
    "methods": {
      "ContractBalance()": {
        "returns": {
          "_0": "Balance of the contract in wei"
        }
      },
      "StartGame()": {
        "details": "Depends on oracle for random numbers. Oracle needs to be called before issuing StartGame  "
      },
      "getNumbers()": {
        "returns": {
          "_0": "Array from mapping with the three random numbers"
        }
      },
      "owner()": {
        "details": "Returns the address of the current owner."
      },
      "renounceOwnership()": {
        "details": "Leaves the contract without owner. It will not be possible to call `onlyOwner` functions anymore. Can only be called by the current owner. NOTE: Renouncing ownership will leave the contract without an owner, thereby removing any functionality that is only available to the owner."
      },
      "selfDestruct()": {
        "details": "Only callable by specific owner"
      },
      "transferOwnership(address)": {
        "details": "Transfers ownership of the contract to a new account (`newOwner`). Can only be called by the current owner."
      }
    },
    "version": 1
  },
  "userdoc": {
    "kind": "user",
    "methods": {
      "ContractBalance()": {
        "notice": "Shows the bankbalance "
      },
      "StartGame()": {
        "notice": "Starts the slotgame when the user genereted the numbers before"
      },
      "alterNumbers()": {
        "notice": "Alters the random number retrieved from the oracle and adds them to the playerList   "
      },
      "getNumbers()": {
        "notice": "Gets the random number associated with the player"
      },
      "selfDestruct()": {
        "notice": "Destruct the smartcontract "
      }
    },
    "version": 1
  }
}