{
  "contractName": "Slots",
  "abi": [
    {
      "inputs": [],
      "stateMutability": "payable",
      "type": "constructor",
      "payable": true
    },
    {
      "anonymous": false,
      "inputs": [
        {
          "indexed": true,
          "internalType": "address",
          "name": "previousOwner",
          "type": "address"
        },
        {
          "indexed": true,
          "internalType": "address",
          "name": "newOwner",
          "type": "address"
        }
      ],
      "name": "OwnershipTransferred",
      "type": "event"
    },
    {
      "anonymous": false,
      "inputs": [
        {
          "indexed": false,
          "internalType": "bool",
          "name": "win",
          "type": "bool"
        },
        {
          "indexed": false,
          "internalType": "uint256",
          "name": "WinAmount",
          "type": "uint256"
        }
      ],
      "name": "Won",
      "type": "event"
    },
    {
      "inputs": [
        {
          "internalType": "uint256",
          "name": "",
          "type": "uint256"
        }
      ],
      "name": "Numbers",
      "outputs": [
        {
          "internalType": "uint256",
          "name": "",
          "type": "uint256"
        }
      ],
      "stateMutability": "view",
      "type": "function",
      "constant": true
    },
    {
      "inputs": [],
      "name": "OracleAdress",
      "outputs": [
        {
          "internalType": "address",
          "name": "",
          "type": "address"
        }
      ],
      "stateMutability": "view",
      "type": "function",
      "constant": true
    },
    {
      "inputs": [],
      "name": "owner",
      "outputs": [
        {
          "internalType": "address",
          "name": "",
          "type": "address"
        }
      ],
      "stateMutability": "view",
      "type": "function",
      "constant": true
    },
    {
      "inputs": [],
      "name": "renounceOwnership",
      "outputs": [],
      "stateMutability": "nonpayable",
      "type": "function"
    },
    {
      "inputs": [
        {
          "internalType": "address",
          "name": "newOwner",
          "type": "address"
        }
      ],
      "name": "transferOwnership",
      "outputs": [],
      "stateMutability": "nonpayable",
      "type": "function"
    },
    {
      "inputs": [
        {
          "internalType": "address",
          "name": "_addy",
          "type": "address"
        }
      ],
      "name": "set_addressOracle",
      "outputs": [],
      "stateMutability": "nonpayable",
      "type": "function"
    },
    {
      "inputs": [],
      "name": "CallOracle",
      "outputs": [
        {
          "internalType": "bytes32",
          "name": "",
          "type": "bytes32"
        }
      ],
      "stateMutability": "nonpayable",
      "type": "function"
    },
    {
      "inputs": [],
      "name": "StartGame",
      "outputs": [],
      "stateMutability": "payable",
      "type": "function",
      "payable": true
    },
    {
      "inputs": [],
      "name": "ContractBalance",
      "outputs": [
        {
          "internalType": "uint256",
          "name": "",
          "type": "uint256"
        }
      ],
      "stateMutability": "view",
      "type": "function",
      "constant": true
    },
    {
      "inputs": [],
      "name": "alterNumbers",
      "outputs": [],
      "stateMutability": "nonpayable",
      "type": "function"
    },
    {
      "inputs": [],
      "name": "getNumbers",
      "outputs": [
        {
          "internalType": "uint256[]",
          "name": "",
          "type": "uint256[]"
        }
      ],
      "stateMutability": "view",
      "type": "function",
      "constant": true
    },
    {
      "inputs": [],
      "name": "selfDestruct",
      "outputs": [],
      "stateMutability": "payable",
      "type": "function",
      "payable": true
    }
  ],
  "bytecode": "0x608060405260006100146100b760201b60201c565b9050806000806101000a81548173ffffffffffffffffffffffffffffffffffffffff021916908373ffffffffffffffffffffffffffffffffffffffff1602179055508073ffffffffffffffffffffffffffffffffffffffff16600073ffffffffffffffffffffffffffffffffffffffff167f8be0079c531659141344cd1fd0a4f28419497f9722a3daafe3b4186f6b6457e060405160405180910390a3506100bf565b600033905090565b611202806100ce6000396000f3fe6080604052600436106100a75760003560e01c8063a3dfc36411610064578063a3dfc364146101f6578063cc04049814610200578063dfa85eb014610217578063ecd651a114610258578063f2fde38b14610283578063fe99d72b146102d4576100a7565b8063031a65ca146100ac5780633b668059146100fd578063715018a61461012857806389f915f61461013f5780638da5cb5b146101ab5780639cb8a26a146101ec575b600080fd5b3480156100b857600080fd5b506100fb600480360360208110156100cf57600080fd5b81019080803573ffffffffffffffffffffffffffffffffffffffff169060200190929190505050610323565b005b34801561010957600080fd5b5061011261042f565b6040518082815260200191505060405180910390f35b34801561013457600080fd5b5061013d610437565b005b34801561014b57600080fd5b506101546105bd565b6040518080602001828103825283818151815260200191508051906020019060200280838360005b8381101561019757808201518184015260208101905061017c565b505050509050019250505060405180910390f35b3480156101b757600080fd5b506101c0610652565b604051808273ffffffffffffffffffffffffffffffffffffffff16815260200191505060405180910390f35b6101f461067b565b005b6101fe61075c565b005b34801561020c57600080fd5b50610215610b6d565b005b34801561022357600080fd5b5061022c610be6565b604051808273ffffffffffffffffffffffffffffffffffffffff16815260200191505060405180910390f35b34801561026457600080fd5b5061026d610c0c565b6040518082815260200191505060405180910390f35b34801561028f57600080fd5b506102d2600480360360208110156102a657600080fd5b81019080803573ffffffffffffffffffffffffffffffffffffffff169060200190929190505050610cbd565b005b3480156102e057600080fd5b5061030d600480360360208110156102f757600080fd5b8101908080359060200190929190505050610ec8565b6040518082815260200191505060405180910390f35b61032b610ee0565b73ffffffffffffffffffffffffffffffffffffffff1660008054906101000a900473ffffffffffffffffffffffffffffffffffffffff1673ffffffffffffffffffffffffffffffffffffffff16146103eb576040517f08c379a00000000000000000000000000000000000000000000000000000000081526004018080602001828103825260208152602001807f4f776e61626c653a2063616c6c6572206973206e6f7420746865206f776e657281525060200191505060405180910390fd5b80600160006101000a81548173ffffffffffffffffffffffffffffffffffffffff021916908373ffffffffffffffffffffffffffffffffffffffff16021790555050565b600047905090565b61043f610ee0565b73ffffffffffffffffffffffffffffffffffffffff1660008054906101000a900473ffffffffffffffffffffffffffffffffffffffff1673ffffffffffffffffffffffffffffffffffffffff16146104ff576040517f08c379a00000000000000000000000000000000000000000000000000000000081526004018080602001828103825260208152602001807f4f776e61626c653a2063616c6c6572206973206e6f7420746865206f776e657281525060200191505060405180910390fd5b600073ffffffffffffffffffffffffffffffffffffffff1660008054906101000a900473ffffffffffffffffffffffffffffffffffffffff1673ffffffffffffffffffffffffffffffffffffffff167f8be0079c531659141344cd1fd0a4f28419497f9722a3daafe3b4186f6b6457e060405160405180910390a360008060006101000a81548173ffffffffffffffffffffffffffffffffffffffff021916908373ffffffffffffffffffffffffffffffffffffffff160217905550565b6060600260003373ffffffffffffffffffffffffffffffffffffffff1673ffffffffffffffffffffffffffffffffffffffff16815260200190815260200160002080548060200260200160405190810160405280929190818152602001828054801561064857602002820191906000526020600020905b815481526020019060010190808311610634575b5050505050905090565b60008060009054906101000a900473ffffffffffffffffffffffffffffffffffffffff16905090565b610683610ee0565b73ffffffffffffffffffffffffffffffffffffffff1660008054906101000a900473ffffffffffffffffffffffffffffffffffffffff1673ffffffffffffffffffffffffffffffffffffffff1614610743576040517f08c379a00000000000000000000000000000000000000000000000000000000081526004018080602001828103825260208152602001807f4f776e61626c653a2063616c6c6572206973206e6f7420746865206f776e657281525060200191505060405180910390fd5b3373ffffffffffffffffffffffffffffffffffffffff16ff5b670de0b6b3a7640000803410156107db576040517f08c379a00000000000000000000000000000000000000000000000000000000081526004018080602001828103825260188152602001807f5472616e73616374696f6e2076616c756520746f206c6f77000000000000000081525060200191505060405180910390fd5b60003490506000819050600060036000600381106107f557fe5b015490506000600360016003811061080957fe5b015490506000600360026003811061081d57fe5b01549050600f83118015610832575060138311155b801561083f575060128211155b801561084c575060128111155b1561085d5761085c846001610ee8565b5b600f831115801561087b575060128211801561087a575060158211155b5b8015610888575060128111155b1561089957610898846001610ee8565b5b600f83111580156108ab575060128211155b80156108c457506012811180156108c3575060158111155b5b156108d5576108d4846001610ee8565b5b600f831180156108e6575060138311155b80156108ff57506012821180156108fe575060158211155b5b801561090c575060128111155b1561091d5761091c846004610ee8565b5b600f831115801561093b575060128211801561093a575060158211155b5b80156109545750601281118015610953575060158111155b5b1561096557610964846004610ee8565b5b600f83118015610976575060138311155b8015610983575060128211155b801561099c575060128111801561099b575060158111155b5b156109ad576109ac846004610ee8565b5b600f83111580156109bf575060128211155b80156109cc575060128111155b15610aaa57600583111580156109e3575060068211155b80156109f0575060068111155b15610a0157610a0084600a610ee8565b5b600583118015610a125750600a8311155b8015610a2b5750600682118015610a2a5750600c8211155b5b8015610a445750600681118015610a435750600c8111155b5b15610a5557610a5484600a610ee8565b5b600a83118015610a665750600f8311155b8015610a7f5750600c82118015610a7e575060128211155b5b8015610a985750600c81118015610a97575060128111155b5b15610aa957610aa884600a610ee8565b5b5b600f83118015610abb575060138311155b8015610ad45750601282118015610ad3575060158211155b5b8015610aed5750601281118015610aec575060158111155b5b15610afe57610afd846014610ee8565b5b601383118015610b0f575060168311155b8015610b1b5750601682145b8015610b275750601681145b15610b3857610b37846028610ee8565b5b601783148015610b485750601782145b8015610b545750601781145b15610b6557610b6484603c610ee8565b5b505050505050565b6000610b77610f9d565b9050610b828161104c565b6003906003610b929291906110dd565b506003600260003373ffffffffffffffffffffffffffffffffffffffff1673ffffffffffffffffffffffffffffffffffffffff168152602001908152602001600020906003610be292919061111d565b5050565b600160009054906101000a900473ffffffffffffffffffffffffffffffffffffffff1681565b600080600160009054906101000a900473ffffffffffffffffffffffffffffffffffffffff1690508073ffffffffffffffffffffffffffffffffffffffff1663dbdff2c16040518163ffffffff1660e01b8152600401602060405180830381600087803b158015610c7c57600080fd5b505af1158015610c90573d6000803e3d6000fd5b505050506040513d6020811015610ca657600080fd5b810190808051906020019092919050505091505090565b610cc5610ee0565b73ffffffffffffffffffffffffffffffffffffffff1660008054906101000a900473ffffffffffffffffffffffffffffffffffffffff1673ffffffffffffffffffffffffffffffffffffffff1614610d85576040517f08c379a00000000000000000000000000000000000000000000000000000000081526004018080602001828103825260208152602001807f4f776e61626c653a2063616c6c6572206973206e6f7420746865206f776e657281525060200191505060405180910390fd5b600073ffffffffffffffffffffffffffffffffffffffff168173ffffffffffffffffffffffffffffffffffffffff161415610e0b576040517f08c379a00000000000000000000000000000000000000000000000000000000081526004018080602001828103825260268152602001806111a76026913960400191505060405180910390fd5b8073ffffffffffffffffffffffffffffffffffffffff1660008054906101000a900473ffffffffffffffffffffffffffffffffffffffff1673ffffffffffffffffffffffffffffffffffffffff167f8be0079c531659141344cd1fd0a4f28419497f9722a3daafe3b4186f6b6457e060405160405180910390a3806000806101000a81548173ffffffffffffffffffffffffffffffffffffffff021916908373ffffffffffffffffffffffffffffffffffffffff16021790555050565b60038160038110610ed557fe5b016000915090505481565b600033905090565b6000818302905060006001905081610efe61042f565b1015610f0f57610f0c61042f565b91505b3373ffffffffffffffffffffffffffffffffffffffff166108fc839081150290604051600060405180830381858888f19350505050158015610f55573d6000803e3d6000fd5b507f2fda3525453650e1c58417dd4764ce9fc5c5f0f77f345a43758186d3d01909d181836040518083151581526020018281526020019250505060405180910390a150505050565b600080600160009054906101000a900473ffffffffffffffffffffffffffffffffffffffff1690508073ffffffffffffffffffffffffffffffffffffffff16633450bd6a6040518163ffffffff1660e01b815260040160206040518083038186803b15801561100b57600080fd5b505afa15801561101f573d6000803e3d6000fd5b505050506040513d602081101561103557600080fd5b810190808051906020019092919050505091505090565b611054611167565b61105c611167565b611064611167565b60005b60038110156110d2576000612710868161107d57fe5b0690508084836003811061108d57fe5b60200201818152505061271086816110a157fe5b049550601781816110ae57fe5b068383600381106110bb57fe5b602002018181525050508080600101915050611067565b508092505050919050565b826003810192821561110c579160200282015b8281111561110b5782518255916020019190600101906110f0565b5b5090506111199190611189565b5090565b828054828255906000526020600020908101928215611156579182015b8281111561115557825482559160010191906001019061113a565b5b5090506111639190611189565b5090565b6040518060600160405280600390602082028036833780820191505090505090565b5b808211156111a257600081600090555060010161118a565b509056fe4f776e61626c653a206e6577206f776e657220697320746865207a65726f2061646472657373a2646970667358221220bcfb4cd1fdd169e0be84736ba475ec4cb9d7b75cea9070ab2af7d5b2213a56e364736f6c634300060c0033",
  "immutableReferences": {},
  "source": "// SPDX-License-Identifier: MIT\r\npragma solidity ^0.6.0;\r\n\r\n/// @title Decentralized slotmachine\r\n/// @author Parzivalza\r\n/// @notice A simple decentralized slotmachine game/backend \r\n\r\nimport \"@openzeppelin/contracts/access/Ownable.sol\";\r\n\r\ncontract Slots is Ownable {\r\n    address public OracleAdress;\r\n    mapping(address => uint[]) playerList;\r\n    uint[3] public Numbers;\r\n    \r\n    event Won(bool win, uint256 WinAmount);  \r\n    modifier minAmount(uint _amount)    {require(msg.value >= _amount,  \"Transaction value to low\");            _;}\r\n\r\n    constructor() public payable Ownable(){\r\n    }\r\n\r\n    function set_addressOracle(address _addy) public onlyOwner{\r\n        OracleAdress = address(_addy);\r\n    }\r\n\r\n    function CallOracle() public returns (bytes32){\r\n        Oracle2 o = Oracle2(OracleAdress);\r\n        return o.getRandomNumber();\r\n    }\r\n\r\n    function ReturnOracleNumber() internal view returns (uint256){\r\n        Oracle2 o = Oracle2(OracleAdress);\r\n        return o.returnNumber();  \r\n    }\r\n        \r\n    /// @notice Starts the slotgame when the user genereted the numbers before\r\n    /// @dev Depends on oracle for random numbers. Oracle needs to be called before issuing StartGame  \r\n    function StartGame() minAmount(1 ether) public payable {\r\n        uint256 amount = msg.value;\r\n        uint256 playerBalance = amount;\r\n        uint Slotwheel1 = Numbers[0];\r\n        uint Slotwheel2 = Numbers[1];\r\n        uint Slotwheel3 = Numbers[2];\r\n        \r\n        //Cherry in slot one and two fruits\r\n        if((Slotwheel1 > 15 && Slotwheel1 <= 19) && (Slotwheel2 <= 18) && (Slotwheel3 <= 18)){\r\n            CalculateWinnings(playerBalance, 1);\r\n        }\r\n        //Cherry in slot two and two fruits\r\n        if((Slotwheel1 <= 15) && (Slotwheel2 > 18 && Slotwheel2 <= 21) && (Slotwheel3 <= 18)){\r\n            CalculateWinnings(playerBalance, 1);\r\n        }\r\n        //Cherry in slot three and two fruits\r\n        if((Slotwheel1 <= 15) && (Slotwheel2 <= 18) && (Slotwheel3 > 18 && Slotwheel3 <= 21)){\r\n            CalculateWinnings(playerBalance, 1);\r\n        }\r\n        \r\n        //Cherries in slot one/two and one fruit\r\n        if((Slotwheel1 > 15 && Slotwheel1 <= 19) && (Slotwheel2 > 18 && Slotwheel2 <= 21) && (Slotwheel3 <= 18)){\r\n            CalculateWinnings(playerBalance, 4);\r\n        }\r\n        //Cherries in slot two/three and one fruit\r\n        if((Slotwheel1 <= 15) && (Slotwheel2 > 18 && Slotwheel2 <= 21) && (Slotwheel3 > 18 && Slotwheel3 <= 21)){\r\n            CalculateWinnings(playerBalance, 4);\r\n        }\r\n        //Cherries in slot one/three and one fruit\r\n        if((Slotwheel1 > 15 && Slotwheel1 <= 19) && (Slotwheel2 <= 18) && (Slotwheel3 > 18 && Slotwheel3 <= 21)){\r\n            CalculateWinnings(playerBalance, 4);\r\n        }\r\n        \r\n        //Random fruit combination (Lemon, Banana, Orange)\r\n        if(Slotwheel1 <= 15 && Slotwheel2 <= 18 && Slotwheel3 <= 18){\r\n            //All lemons\r\n            if(Slotwheel1 <= 5 && Slotwheel2 <= 6 && Slotwheel3 <= 6){\r\n                CalculateWinnings(playerBalance, 10);\r\n            }\r\n            //All Banana\r\n            if((Slotwheel1 > 5 && Slotwheel1 <= 10)&&(Slotwheel2 > 6 && Slotwheel2 <= 12)&&(Slotwheel3 > 6 && Slotwheel3 <= 12)){\r\n                CalculateWinnings(playerBalance, 10);\r\n            }\r\n            //ALl Orange\r\n            if((Slotwheel1 > 10 && Slotwheel1 <= 15)&&(Slotwheel2 > 12 && Slotwheel2 <= 18)&&(Slotwheel3 > 12 && Slotwheel3 <= 18)){\r\n                CalculateWinnings(playerBalance, 10);\r\n            }\r\n        }\r\n        \r\n        //All cherries\r\n        if((Slotwheel1 > 15 && Slotwheel1 <= 19) && (Slotwheel2 > 18 && Slotwheel2 <= 21) && (Slotwheel3 > 18 && Slotwheel3 <= 21)){\r\n            CalculateWinnings(playerBalance, 20);\r\n        }\r\n        //All Sevens\r\n        if((Slotwheel1 > 19 && Slotwheel1 <= 22) && (Slotwheel2 == 22) && (Slotwheel3 == 22)){\r\n            CalculateWinnings(playerBalance, 40);\r\n        }\r\n        //All BARs\r\n        if((Slotwheel1 == 23) && (Slotwheel2 == 23) && (Slotwheel3 == 23)){\r\n            CalculateWinnings(playerBalance, 60);\r\n        }\r\n    }\r\n    \r\n    \r\n    /// @notice Shows the bankbalance \r\n    /// @return Balance of the contract in wei\r\n    function ContractBalance() public view returns (uint){\r\n        return address(this).balance;\r\n    }\r\n    \r\n    function CalculateWinnings(uint Pbalance, uint Multiplier) private {\r\n        uint256 WinBalance = Pbalance * Multiplier;\r\n        bool win = true;\r\n        if(ContractBalance() < WinBalance){\r\n            WinBalance = ContractBalance();\r\n            }\r\n        msg.sender.transfer(WinBalance);\r\n        emit Won(win, WinBalance);\r\n    }\r\n    \r\n    /// @notice Alters the random number retrieved from the oracle and adds them to the playerList   \r\n    function alterNumbers() public {\r\n        uint256 Number = ReturnOracleNumber();\r\n        Numbers = SliceAndDice(Number);\r\n        playerList[msg.sender] = Numbers;\r\n    }\r\n    \r\n    /// @notice Gets the random number associated with the player\r\n    /// @return Array from mapping with the three random numbers\r\n    function getNumbers() public view returns(uint[] memory) {\r\n        return playerList[msg.sender];\r\n    }\r\n    \r\n    function SliceAndDice(uint256 input) internal returns (uint[3] memory) {\r\n        uint[3] memory array;\r\n        uint[3] memory random;\r\n        \r\n        for(uint i=0; i<3; i++) {\r\n            uint digit = input % 10000;\r\n            // do something with digit\r\n            array[i] = digit;\r\n            input /= 10000;\r\n            random[i] =digit % 23;\r\n        }\r\n        return random;\r\n    } \r\n    \r\n    /// @notice Destruct the smartcontract \r\n    /// @dev Only callable by specific owner\r\n    \r\n    function selfDestruct() payable public onlyOwner{\r\n        selfdestruct(msg.sender);\r\n    }\r\n    \r\n}\r\n\r\ninterface Oracle2{\r\n    function getRandomNumber() external returns (bytes32);\r\n    function returnNumber() external view returns (uint256);\r\n}",
  "sourcePath": "C:/Users/Lord R/Documents/GitHub/BC3_Jakob/PD-14/contracts/slots.sol",
  "compiler": {
    "name": "solc",
    "version": "0.6.12+commit.27d51765.Emscripten.clang"
  },
  "schemaVersion": "3.3.2",
  "updatedAt": "2021-01-15T10:14:43.546Z",
  "networkType": "ethereum",
  "devdoc": {
    "kind": "dev",
    "methods": {
      "ContractBalance()": {
        "returns": {
          "_0": "Balance of the contract in wei"
        }
      },
      "StartGame()": {
        "details": "Depends on oracle for random numbers. Oracle needs to be called before issuing StartGame  "
      },
      "getNumbers()": {
        "returns": {
          "_0": "Array from mapping with the three random numbers"
        }
      },
      "owner()": {
        "details": "Returns the address of the current owner."
      },
      "renounceOwnership()": {
        "details": "Leaves the contract without owner. It will not be possible to call `onlyOwner` functions anymore. Can only be called by the current owner. NOTE: Renouncing ownership will leave the contract without an owner, thereby removing any functionality that is only available to the owner."
      },
      "selfDestruct()": {
        "details": "Only callable by specific owner"
      },
      "transferOwnership(address)": {
        "details": "Transfers ownership of the contract to a new account (`newOwner`). Can only be called by the current owner."
      }
    },
    "version": 1
  },
  "userdoc": {
    "kind": "user",
    "methods": {
      "ContractBalance()": {
        "notice": "Shows the bankbalance "
      },
      "StartGame()": {
        "notice": "Starts the slotgame when the user genereted the numbers before"
      },
      "alterNumbers()": {
        "notice": "Alters the random number retrieved from the oracle and adds them to the playerList   "
      },
      "getNumbers()": {
        "notice": "Gets the random number associated with the player"
      },
      "selfDestruct()": {
        "notice": "Destruct the smartcontract "
      }
    },
    "version": 1
  }
}